:1000000019C033C032C031C030C02FC02EC02DC087
:100010002CC02BC02AC029C028C027C026C025C09C
:1000200024C023C073C021C020C01FC01EC01DC07B
:100030001CC01BC011241FBECFEFD4E0DEBFCDBF5C
:1000400011E0A0E0B1E0EAE3F3E002C005900D9218
:10005000A030B107D9F724E1A0E0B1E001C01D92C2
:10006000AD3EB207E1F74ED066C1CACF80E48093BF
:100070007C0087E880937A000895ECE7F0E09081B7
:10008000987F8770892B8083EAE7F0E08081806425
:100090008083808186FDFDCF8091780090917900EA
:1000A000089510E080E0E9DFC12FD0E0CC0FDD1F24
:1000B000CC0FDD1FC050DF4FBC0180E090E04AD084
:1000C00020E030E040EA50E4D3D020E030E040E8E7
:1000D0005AE3CED0688379838A839B831F5FE2CF04
:1000E0001092C50083E38093C40088E98093C10027
:1000F00086E08093C200519A509810928814109212
:10010000891408957894B2DFEBDFCBDF1F920F9252
:100110000FB60F9211248F93EF93FF938091C60037
:10012000E0918814F0E0E657FB4E808380918814BC
:100130008F3319F41092881405C0809188148F5F52
:1001400080938814FF91EF918F910F900FBE0F90C5
:100150001F901895E89409C097FB3EF49095809500
:10016000709561957F4F8F4F9F4F9923A9F0F92F7D
:1001700096E9BB279395F695879577956795B795FB
:10018000F111F8CFFAF4BB0F11F460FF1BC06F5FE1
:100190007F4F8F4F9F4F16C0882311F096E911C0F3
:1001A000772321F09EE8872F762F05C0662371F014
:1001B00096E8862F70E060E02AF09A95660F771F28
:1001C000881FDAF7880F9695879597F9089597F91C
:1001D0009F6780E870E060E008959FEF80EC0895ED
:1001E00000240A9416161706180609060895002416
:1001F0000A9412161306140605060895092E039490
:10020000000C11F4882352F0BB0F40F4BF2B11F403
:1002100060FF04C06F5F7F4F8F4F9F4F089557FD62
:100220009058440F551F59F05F3F71F04795880F64
:1002300097FB991F61F09F3F79F0879508951216FB
:1002400013061406551FF2CF4695F1DF08C01616A7
:1002500017061806991FF1CF869571056105089458
:100260000895E894BB2766277727CB0197F908956F
:100270000BD0C4CFB5DF28F0BADF18F0952309F012
:10028000A6CFABCF1124EECFCADFA0F3959FD1F359
:10029000950F50E0551F629FF001729FBB27F00D34
:1002A000B11D639FAA27F00DB11DAA1F649F662789
:1002B000B00DA11D661F829F2227B00DA11D621FD8
:1002C000739FB00DA11D621F839FA00D611D221F92
:1002D000749F3327A00D611D231F849F600D211D76
:1002E000822F762F6A2F11249F5750408AF0E1F019
:1002F00088234AF0EE0FFF1FBB1F661F771F881F62
:1003000091505040A9F79E3F510570F060CFAACFA1
:100310005F3FECF3983EDCF3869577956795B7954C
:10032000F795E7959F5FC1F7FE2B880F911D969576
:0A033000879597F90895F894FFCF20
:00000001FF
