S0180000456D6265646465642050726F6A6563742E737265630B
S11300000C9434000C9451000C9451000C94510045
S11300100C9451000C9451000C9451000C94510018
S11300200C9451000C9451000C9451000C94510008
S11300300C9451000C9451000C9451000C945100F8
S11300400C9451000C9451000C9498000C945100A1
S11300500C9451000C9451000C9451000C945100D8
S11300600C9451000C94510011241FBECFEFD8E022
S1130070DEBFCDBF12E0A0E0B1E0ECE7F1E002C0EA
S113008005900D92A234B107D9F722E0A2E4B2E0C0
S113009001C01D92A13BB207E1F70E9490000C94AD
S11300A0BC000C94000080E480937C0087E880937B
S11300B07A0008951092C50083E38093C40088E910
S11300C08093C10086E08093C200519A50981092A8
S11300D04202109243020895CF93DF93FC012081E2
S11300E0222369F0DC011196E0ECF0E0C6ECD0E0EC
S11300F0908195FFFDCF28832D912111F9CFDF91B8
S1130100CF9108958CE0E0E0F1E0A4E8B2E0019042
S11301100D928A95E1F784E892E00E946C000895BC
S113012078940E9453000E945A000E948200FFCFDC
S11301301F920F920FB60F9211248F93EF93FF9398
S11301408091C600E0914202F0E0EC5BFD4F8083B9
S1130150809142028F3319F41092420205C08091BB
S113016042028F5F80934202FF91EF918F910F9033
S10F01700FBE0F901F901895F894FFCF5D
S113017C48656C6C6F20576F726C64004861726DCB
S113018C6F6E696320256409002D2D2D2D2D2D2DC9
S113019C2D2009004672657175656E63792025669C
S11301AC20487A0900416E616C7973697320537528
S11301BC6D6D617279206F66205369676E616C2076
S11301CC53616D706C652025640A0D002D2D2D2D49
S11301DC2D2D2D2D2D2D2D2D2D2D2D2D2D2D2D2D3F
S11301EC2D2D2D2D2D2D2D2D2D0A0D0057617665C0
S11301FC666F726D0A0D00537065637472756D0AC7
S113020C0D00416D706C6974756465202D20256634
S113021C20560A0D005065616B20746F2050656187
S113022C6B202D20256620560A0D0046756E6461E0
S113023C6D656E74616C204672657175656E63795B
S113024C20285A65726F2D43726F7373696E672918
S113025C202D20256620487A0A0D0046756E6461AF
S113026C6D656E74616C204672657175656E63792B
S113027C202846465429202D20256620487A0A0D2C
S113028C004861726D6F6E696320467265717565A5
S113029C6E63696573004E756D626572206F6620BE
S11302AC4861726D6F6E696373202D2025640A0D8D
S10502BC00003C
S9030000FC
