:100000000C9434000C9451000C9451000C94510049
:100010000C9451000C9451000C9451000C9451001C
:100020000C9451000C9451000C9451000C9451000C
:100030000C9451000C9451000C9451000C945100FC
:100040000C9451000C9451000C9498000C945100A5
:100050000C9451000C9451000C9451000C945100DC
:100060000C9451000C94510011241FBECFEFD8E026
:10007000DEBFCDBF11E0A0E0B1E0ECE7F1E002C0EF
:1000800005900D92A63AB107D9F722E0A6EAB1E0B1
:1000900001C01D92AB30B207E1F70E9490000C94B2
:1000A000BC000C94000080E480937C0087E880937F
:1000B0007A0008951092C50083E38093C40088E914
:1000C0008093C10086E08093C200519A50981092AC
:1000D000A6011092A7010895CF93DF93FC01208120
:1000E000222369F0DC011196E0ECF0E0C6ECD0E0F0
:1000F000908195FFFDCF28832D912111F9CFDF91BC
:10010000CF9108958CE0E0E0F1E0A8EEB1E001903D
:100110000D928A95E1F788EE91E00E946C000895B7
:1001200078940E9453000E945A000E948200FDCFE2
:100130001F920F920FB60F9211248F93EF93FF939C
:100140008091C600E091A601F0E0E855FE4F808363
:100150008091A6018F3319F41092A60105C08091F9
:10016000A6018F5F8093A601FF91EF918F910F9071
:0C0170000FBE0F901F901895F894FFCF61
:10017C0048656C6C6F20576F726C6400416E616CDB
:10018C00797369732053756D6D617279202D2053CD
:10019C00616D706C6525640A0D002D2D2D2D2D2D96
:1001AC002D2D2D2D2D2D2D2D2D2D2D2D2D2D2D2D73
:1001BC002D2D2D2D2D2D2D0A0D00416D706C69747A
:1001CC00756465202D20256620560A0D005065614A
:1001DC006B20746F205065616B202D202566205696
:1001EC000A0D004672657175656E6379202D2025A8
:1001FC006620487A0A0D004861726D6F6E69632043
:10020C004672657175656E6379202D2025643A25DB
:06021C0064200A0D000041
:00000001FF
